:020000040800F2
:1000000030100224D903000849470108D10D010826
:100010005946010871120008E1EC010800000000D7
:10002000000000000000000000000000E176010870
:10003000C931000800000000C1540108917F010887
:10004000F7030008F7030008F7030008F7030008A8
:10005000F7030008F7030008F7030008F703000898
:10006000F7030008F7030008F7030008C12300089E
:10007000D1230008E1230008F1230008012400082F
:10008000F7030008F7030008F7030008D13300085E
:10009000F1330008E133000801340008F7030008D9
:1000A000F7030008F7030008F7030008F703000848
:1000B00009820108F7030008F7030008F7030008A6
:1000C000F7030008F7030008F7030008F703000828
:1000D000E9740108B1AD010879AF0108F703000820
:1000E000F7030008F7030008000000001982010868
:1000F000F7030008F7030008F703000811240008BD
:10010000F7030008F7030008F7030008F7030008E7
:10011000F7030008399A0108F7030008F7030008FD
:1001200021240008F7030008F70300083124000821
:1001300041240008F7030008F7030008F70300084C
:1001400000000000000000000000000000000000AF
:10015000F7030008F7030008F7030008F703000897
:10016000F7030008F7030008F7030008F703000887
:10017000F7030008494D0108F703000800000000DC
:10018000F7030008F7030008F7030008F703000867
:10019000F7030008F7030008F7030008F703000857
:1001A000F7030008F7030008F70300080000000049
:1001B000F7030008F7030008F7030008F703000837
:1001C000F7030008F703000800000000000000002B
:1001D0000000000000000000F7030008000000001D
:1001E000000000000000000000000000000000000F
:1001F0000000000000000000F7030008F7030008FB
:10020000F7030008F703000800000000F7030008E8
:10021000F7030008F7030008F7030008F7030008D6
:10022000F703000800000000F703000800000000CA
:10023000F7030008F703000800000000F7030008B8
:10024000F7030008F7030008F7030008F7030008A6
:10025000F7030008F7030008F7030008F703000896
:10026000F7030008F7030008F7030008F703000886
:10027000F7030008F7030008F70300080000000078
:10028000F7030008F7030008F7030008F703000866
:1002900000000000F7030008F7030008000000005A
:1002A00000000000F7030008F7030008F703000848
:1002B000F7030008F7030008F703000811340008EB
:1002C00021340008F7030008F703000800F002F8E3
:1002D00000F072F814A696E8000CB244B344DA4574
:1002E00001D100F069F8BAE80F000FA696E83000D7
:1002F000A5EB040504EB0607AAEB0704A7F1010729
:100300004FEA15154FEA3414A4F10104AC4201D3AD
:1003100000F052F813F0010F18BFFB1A43F001036D
:1003200000F001F8DBE718478C500200AC500200E7
:100330000A444FF0000C10F8013B13F0070408BF0B
:1003400010F8014B1D1108BF10F8015B641E05D0A9
:1003500010F8016B641E01F8016BF9D113F0080F5E
:100360001EBF10F8014BAD1C0C1B09D16D1E58BFF0
:1003700001F801CBFAD505E014F8016B01F8016B27
:100380006D1EF9D59142D6D370470000704700002A
:100390000023002400250026103A28BF78C1FBD88E
:1003A000520728BF30C148BF0B6070471FB523F00C
:1003B000DCFE1FBD10B510BD00F0FFF91146FFF7C0
:1003C000F5FF20F075FC00F01DFA03B4FFF7F2FF13
:1003D00003BC00F021FA00000A4880470A48804721
:1003E0000A480047FEE7FEE7FEE7FEE7FEE7FEE716
:1003F000FEE7FEE7FEE7FEE705480649064A074B2B
:1004000070470000A9330008A1800108CD02000850
:1004100030F801243010022430000224300002247D
:10042000F0B400EB4003DFF8880000EBC30000F1FC
:1004300018063069F7687568874232D3B368DC1BE9
:10044000631E934214D37D19D01900BF11F8013BEC
:1004500005F8013B521E05D011F8013B05F8013BA0
:10046000521EF3D1BFF35F8FF0600120F0BC7047E4
:10047000C018904219D37819121B11F8013B00F8EB
:10048000013B641EF9D1141C05D011F8013B05F89D
:10049000013B521EF9D1BFF35F8FF4600120F0BC25
:1004A0007047C01B401E9042CDD20020F0BC704768
:1004B000241B002453EA020C00F069802DE9F04B64
:1004C0004FF00006002B1FBFB3FA83F503FA05F4C3
:1004D00024FA05F65E4012BF1643B2FA82F502FA1C
:1004E00005F4C5F120051EBF22FA05FC44EA0C0400
:1004F000203556EA044C4FEA144418BF641C4FF0F0
:1005000000084FF00009904271EB030C39D3002929
:1005100019BFB1FA81F701FA07F6B0FA80F700FACD
:1005200007F6C7F120071EBF20FA07FC46EA0C06B3
:100530002037B6FBF4FCA7EB0507103F07F01F0BB5
:10054000CBF120062CFA06F60CFA0BFB44BFB3469F
:100550000026202FA4BF5E464FF0000B5BEA060C7E
:1005600008BF4FF0010B19EB0B0948EB0608ABFB7A
:10057000027C06FB02CC0BFB03CCC01B71EB0C0115
:10058000C1E70B46024641464846BDE8F08B13B52D
:10059000084318BF4FF0FF300146AFF30080BDE8BD
:1005A0001C40704740EA010310B59B070FD1042A95
:1005B0000DD310C808C9121F9C42F8D020BA19BA2E
:1005C000884201D9012010BD4FF0FF3010BD1AB193
:1005D000D30703D0521C07E0002010BD10F8013BE8
:1005E00011F8014B1B1B07D110F8013B11F8014B0F
:1005F0001B1B01D1921EF1D1184610BD032A40F2F7
:10060000308010F0030C00F0158011F8013BBCF1B4
:10061000020F624498BF11F801CB00F8013B38BFCC
:1006200011F8013BA2F1040298BF00F801CB38BFDA
:1006300000F8013B11F0030300F02580083AC0F0F8
:10064000088051F8043B083A51F804CBA0E80810A0
:10065000F5E7121D5CBF51F8043B40F8043BAFF3D3
:100660000080D20724BF11F8013B11F801CB48BF2D
:1006700011F8012B24BF00F8013B00F801CB48BF63
:1006800000F8012B704710B5203AC0F00B80B1E89C
:100690001850A0E81850B1E81850A0E81850203AB7
:1006A000BFF4F5AF5FEA027C24BFB1E81850A0E8C0
:1006B000185044BF18C918C0BDE810405FEA827CDA
:1006C00024BF51F8043B40F8043B08BF7047D207F1
:1006D00028BF31F8023B48BF11F8012B28BF20F892
:1006E000023B48BF00F8012B704702F0FF0343EACA
:1006F000032242EA024200F024B84FF0000204292B
:10070000C0F0128010F0030C00F01B80CCF1040C40
:10071000BCF1020F18BF00F8012BA8BF20F8022B74
:10072000A1EB0C0100F00DB85FEAC17C24BF00F81A
:10073000012B00F8012B48BF00F8012B70474FF048
:10074000000200B5134694469646203922BFA0E821
:100750000C50A0E80C50B1F12001BFF4F7AF09072D
:1007600028BFA0E80C5048BF0CC05DF804EB89001E
:1007700028BF40F8042B08BF704748BF20F8022B61
:1007800011F0804F18BF00F8012B70477047704779
:10079000704710B500F00CF8006810BD10B50446A5
:1007A00000F006F8046010BD00487047880200247D
:1007B000004870478802002470477546FFF7F4FF31
:1007C000AE4605006946534620F00700854618B03E
:1007D00020B5FFF711FEBDE820404FF000064FF0B6
:1007E00000074FF000084FF0000BAC46ACE8C00922
:1007F000ACE8C009ACE8C009ACE8C00921F00701C9
:100800008D46704710B50446AFF300802046BDE822
:100810001040FFF7DABD000001491820ABBEFEE72B
:10082000260002000000000080B584B00390029111
:100830000020ADF80600039820B1FFE702980228D7
:1008400001D8FFE71AE003980299023940F2AC029E
:10085000C2F20042128803F023F8ADF80600BDF89A
:100860000600039A0299114401F8020C9DF8070052
:10087000039A0299114401F8010CFFE704B080BD0E
:1008800080B544F6A430C2F200404FF22C31C2F2DF
:1008900001414FF480720FF023F944F2F010C2F2DC
:1008A000004000681021C4F20201884200F0B280CA
:1008B000FFE744F2F010C2F2004000682821C4F2C1
:1008C0000201884200F0A680FFE744F2F010C2F275
:1008D000004000684021C4F20201884200F09A8082
:1008E000FFE744F2F010C2F2004000685821C4F261
:1008F0000201884200F08E80FFE744F2F010C2F25D
:10090000004000687021C4F20201884200F0828039
:10091000FFE744F2F010C2F2004000688821C4F200
:100920000201884276D0FFE744F2F010C2F20040A4
:100930000068A021C4F2020188426BD0FFE744F2B4
:10094000F010C2F200400068B821C4F202018842EF
:1009500060D0FFE744F2F010C2F20040006840F2BD
:100960001041C4F20201884254D0FFE744F2F01073
:10097000C2F20040006840F22841C4F202018842FD
:1009800048D0FFE744F2F010C2F20040006840F2A5
:100990004041C4F2020188423CD0FFE744F2F0102B
:1009A000C2F20040006840F25841C4F2020188429D
:1009B00030D0FFE744F2F010C2F20040006840F28D
:1009C0007041C4F20201884224D0FFE744F2F010E3
:1009D000C2F20040006840F28841C4F2020188423D
:1009E00018D0FFE744F2F010C2F20040006840F275
:1009F000A041C4F2020188420CD0FFE744F2F0109B
:100A0000C2F20040006840F2B841C4F202018842DC
:100A10000AD1FFE744F2F010C2F200400168086812
:100A200020F00800086009E044F2F010C2F2004033
:100A30000168086820F004000860FFE780BD00003E
:100A400080B584B04FF22C30C2F201400078AB2860
:100A500063D1FFE74FF22C30C2F2014090F83F0023
:100A6000FD285AD1FFE700208DF80F00FFE79DF821
:100A70000F0003281CDCFFE79DF80F104FF22C300D
:100A8000C2F2014000EB41025078927840EA022025
:100A900001EB411242F2A851C2F2004101EBC20146
:100AA0004884FFE79DF80F0001308DF80F00DEE766
:100AB0004FF22C30C2F201400090417A827A41EA32
:100AC000022140F26412C2F20042118002A9019197
:100AD000C17A019A1170017B019A5170417B019A90
:100AE0009170817B019AD170029942F2A852C2F2B0
:100AF0000042C2F8DC1400F10F0140F62820C2F2D7
:100B000000401E22FFF77AFD009890F83E0040F268
:100B10000831C2F200410870FFE704B080BD000058
:100B200080B58AB04FF22C41C2F20141AA20087070
:100B300000208DF82700FFE79DF82700032824DC1C
:100B4000FFE79DF8273003EB431142F2A850C2F2B1
:100B50000040203000EBC1018A7A4FF22C41C2F2F2
:100B6000014101EB43035A709DF8272002EB421329
:100B700000EBC300C07A01EB42018870FFE79DF8EB
:100B8000270001308DF82700D6E742F2A850C2F2C4
:100B9000004000F58862069292ED030A9FEDA31AC9
:100BA0008DED071A20EE010ABDEEC00A10EE103AD4
:100BB0004FF22C41C2F2014108914B7292ED030AAF
:100BC00020EE010ABDEEC00A10EE103A1B0A8B722D
:100BD00092ED040A20EE010ABDEEC00A10EE103AB2
:100BE000CB7292ED040A20EE010ABDEEC00A10EEAF
:100BF000103A1B0A0B7392ED2A0A20EE010ABDEE91
:100C0000C00A10EE103A4B7392ED2A0A20EE010A48
:100C1000BDEEC00A10EE103A1B0A8B7392ED2E0A3D
:100C200020EE010ABDEEC00A10EE103ACB7392ED31
:100C30002E0A20EE010ABDEEC00A10EE102A120A9A
:100C40000A7490F83005487441F61430C2F200403E
:100C5000007888744FF2D440C2F2014090ED000A4F
:100C6000BCEEC00A10EE100AC8740020087546F2E7
:100C7000F020C2F20040B0F91201002808D4FFE7CA
:100C800046F2F020C2F20040B0F91201059008E0EF
:100C900046F2F020C2F20040B0F912014042059045
:100CA000FFE7059800EE100AB8EEC00A8DED040AC1
:100CB00046F2F020C2F20040B0F91A02002808D42F
:100CC000FFE746F2F020C2F20040B0F91A020390AA
:100CD00008E046F2F020C2F20040B0F91A024042A9
:100CE0000390FFE79DED041A039800EE100AB8EE9A
:100CF000C00AB6EE002A20EE020AA1EE020ABDEEFC
:100D0000C00A10EE100A4FF22C41C2F201414875A0
:100D100046F2F020C2F20040B0F91201002808D4D7
:100D2000FFE746F2F020C2F20040B0F91201029053
:100D300008E046F2F020C2F20040B0F91201404251
:100D40000290FFE7029800EE100AB8EEC00A8DED9F
:100D5000010A46F2F020C2F20040B0F91A0200285F
:100D600008D4FFE746F2F020C2F20040B0F91A02C0
:100D7000009008E046F2F020C2F20040B0F91A02FA
:100D800040420090FFE79DED011A009800EE100A26
:100D9000B8EEC00AB6EE002A20EE020AA1EE020A60
:100DA000BDEEC00A10EE100A000A4FF22C41C2F24A
:100DB0000141887546F2F020C2F200400279CA75FE
:100DC00090F84E0300F00100087642F2A850C2F2FB
:100DD000004000F5AC6090ED000ABDEEC00A10EED8
:100DE000102A4A7690ED000ABDEEC00A10EE100AF5
:100DF000000A887642F68840C2F2004090F8360F2A
:100E000000F00100C87640F2ED50C2F200400078D8
:100E100081F83E00FE2081F83F0044F6A430C2F283
:100E2000004040220FF080FE0AB080BD00007A44EE
:100E300080B540F60000C5F602000122114608F018
:100E4000CFFC80BD0000000080B540F60000C5F674
:100E500002000121002208F0C3FC80BD0000000058
:100E6000704700000000000080B540F60000C5F6A5
:100E700002000821012208F0B3FC80BD0000000040
:100E800080B540F60000C5F602000821002208F0F7
:100E9000A7FC80BD000000007047000000000000BB
:100EA00080B582B0ADF80600FFE7BDF80600411E30
:100EB000ADF8061028B1FFE74FF47A7000F004F89F
:100EC000F3E702B080BD000086B0ADF81600002048
:100ED000049003900290019000904EF21400CEF224
:100EE000000000680090BDF81600C0EB0010400143
:100EF00004904EF21800CEF2000000680390FFE765
:100F00004EF21800CEF20000006802900298039999
:100F100088421ED0FFE702980399884207D2FFE774
:100F200003980299411A01980844019008E000983A
:100F30000299401A03990144019808440190FFE77F
:100F40000298039001980499884201D3FFE701E0D9
:100F5000FFE7D5E706B0704780B582B000208DF876
:100F60000700FFF77DFFFFF797FF1FF031FB0146FA
:100F70009DF8070008438DF807001FF0F1FB0146BC
:100F80009DF8070008438DF807009DF8070002B0A0
:100F900080BD00000000000080B588B00790069179
:100FA00005920020009004900390FFF74DFF9220DF
:100FB00000F00AF9122003A90191062200F0CCF8F2
:100FC000FFF736FF9DF80C009DF80D1040EA012058
:100FD000ADF80A00BDF90A0000EE100AB8EEC00A2A
:100FE00040F2A000C2F2004090ED001A20EE010A8B
:100FF000069981ED000A9DF80E109DF80F2041EA38
:101000000221ADF80A10BDF90A1000EE101AB8EE70
:10101000C00A90ED001A20EE010A069981ED010A3E
:101020009DF810109DF8112041EA0221ADF80A1038
:10103000BDF90A1000EE101AB8EEC00A90ED001AC1
:1010400020EE010A069880ED020AFFF719FF0098CA
:101050000199082200F080F8FFF706FF9DF80C00C8
:101060000F2844D1FFE79DF80E009DF80F1040EACD
:101070000120ADF80A00BDF90A0000EE100AB8EE32
:10108000C00A40F2A400C2F2004090ED001A20EE27
:10109000010A079981ED000A9DF810109DF81120B2
:1010A00041EA0221ADF80A10BDF90A1000EE101A4B
:1010B000B8EEC00A90ED001A20EE010A079981ED02
:1010C000010A9DF812109DF8132041EA0221ADF8A3
:1010D0000A10BDF90A1000EE101AB8EEC00A90ED21
:1010E000001A20EE010A079880ED020AFFE7FFF7D9
:1010F000ABFEA22000F068F8222003A9022200F033
:101100002BF8FFF795FE9DF80C009DF80D10C00020
:1011100040EA5110ADF80A00BDF90A00B0F5806F41
:1011200007DBFFE7BDF80A00A0F50060ADF80A0094
:10113000FFE7BDF90A0000EE100AB8EEC01AB4EEDF
:10114000002AB3EE070AA1EE020A059880ED000A14
:1011500008B080BD0000000080B584B08DF80F009D
:1011600002918DF807209DF80F0040F0800000F0FC
:101170002BF8FFE79DF8070070B1FFE7552000F05E
:1011800023F8029908700298013002909DF8070038
:1011900001388DF80700EDE704B080BD00000000C5
:1011A00080B582B08DF8070000919DF8070040F0EF
:1011B000800000F009F8552000F006F8009908704A
:1011C00002B080BD0000000080B582B08DF807003D
:1011D00069464FF47A70086044F6A410C2F20040E9
:1011E0000DF107010DF1060201230CF01DFF9DF822
:1011F000060002B080BD000080B582B08DF8070007
:101200008DF806109DF80700FFF7DEFF9DF8060039
:10121000FFF7DAFF02B080BD80B584B003908DF88F
:101220000B1000200190FFE701989DF80B108842F9
:101230000FDAFFE70398019900EB810146F2D01025
:10124000C2F2004014F070F9FFE7019801300190FC
:10125000EAE740F2E820C2F20040006802220023E0
:10126000194621F07DF904B080BD000000000000A7
:10127000FFE7FEE70000000080B586B0059004910E
:1012800005980068029040F20121884206D0FFE7ED
:101290000298A0F20220022822D35EE0049B93F879
:1012A00000C059789A78D87841EA0C2140EA0222A5
:1012B00093F804C0587940EA0C2093F90630EC46C4
:1012C000CCF8003003B246F2F020C2F20040083001
:1012D00009B212B201F054F8082002F049F83DE0DA
:1012E00005980068A0F202208DF80F009DF80F000D
:1012F00000EB401146F2F020C2F2004000EBC100CA
:1013000000F58870DDF810C09CF800E09CF8011032
:101310009CF802309CF8032041EA0E2142EA0322A5
:101320009CF804E09CF8053043EA0E239CF906C0C3
:10133000EE46CEF800C01BB209B212B201F020F89E
:101340009DF80F000930C0B202F012F89DF80F00AE
:101350000930C0B202F00CF800E0FFE706B080BD33
:1013600080B584B003900291039800680190112821
:101370000ED0FFE70198122817D0FFE70198132835
:1013800020D0FFE7019840F20521884227D049E0AC
:10139000029942F68840C2F2004000F555701FF0F5
:1013A000E7FA052001F0E4FF3DE0029942F68840AB
:1013B000C2F2004000F5AB601FF0DAFA062001F03F
:1013C000D7FF30E0029942F68840C2F2004000F5B3
:1013D000CA601FF041FB072001F0CAFF23E0029B17
:1013E00093F800C059789A78D87841EA0C2140EAFD
:1013F000022293F804C0587940EA0C2093F9063091
:10140000EC46CCF8003003B242F68840C2F200400D
:1014100000F58A6009B212B200F0B2FF042001F0B8
:10142000A7FF00E0FFE704B080BD0000000000005F
:1014300082B00190009101980068B0F5407F01D121
:10144000FFE700E0FFE702B0704700000000000087
:1014500080B592B0002008900A900B90022105916F
:101460000C91012106910D910E900F9044F2E02015
:10147000C2F2004002900AA9049106F0E9FD059A23
:10148000089B029869460B60114606F06DFE0699AE
:10149000089A029806F098FC089A02984FF000719A
:1014A000079106F091FC069A0298114606F07CFD21
:1014B000029807F055FF049944F28030C2F20040D0
:1014C000039006F0C5FD059A089B039869460B60DA
:1014D000114606F049FE069A0398114606F064FD8F
:1014E0000699089A039806F06FFC0799089A0398E2
:1014F00006F06AFC039807F033FF049944F2204099
:10150000C2F20040099006F0A3FD059A089B0998D5
:1015100069460B60114606F027FE069A09981146A7
:1015200006F042FD0699089A099806F04DFC0799C5
:10153000089A099806F048FC099807F011FF12B0C4
:1015400080BD00000000000084B08DF80F00029103
:10155000ADF806209DF80F000146009123281DD804
:101560000099DFE801F012131415161B1B1B1B1B3F
:101570001B1B1B1B1B1B1B1B1B1B1B1B1B1B1B1BBB
:101580001B1B1B1B1B1B1718191A08E007E006E0A2
:1015900005E004E003E002E001E000E0FFE70020F6
:1015A00004B07047000000000020704700000000F9
:1015B00080B582B043F6CC30C2F20040009041F2D8
:1015C0000E31C2F20041002201921AF065F9009832
:1015D00040F60E31C2F200411AF03EF9019802B015
:1015E00080BD00000000000080B584B0039002912F
:1015F0000398029909681DF0FFFB039943F6CC306C
:10160000C2F2004001901AF027F901981AF0C8F8C8
:10161000002004B080BD000083B0029001918DF8DD
:10162000032000208DF802009DF9020003B07047EE
:1016300080B586B00490ADF80E1000208DF80D0036
:1016400043F6CC30C2F20040D0F8BC0202900298BF
:10165000D0F8140220B1FFE701208DF8170013E045
:101660000499BDF80E2043F6CC30C2F20040019040
:101670001AF012F901981AF01BFA8DF80D009DF876
:101680000D008DF81700FFE79DF8170006B080BD2C
:1016900080B588B042F2A850C2F20040049000F534
:1016A000A4609FED6E0A16F05BFC049890F880052C
:1016B00040B9FFE742F2A850C2F20040D0F86005FE
:1016C0000790FFE79DED070A9FED651AB4EE410A0A
:1016D000F1EE10FA09DBFFE79DED070A9FED611AB5
:1016E00030EE010A8DED070AFFE79DED070A9FED39
:1016F0005E1AB4EE410AF1EE10FA09DAFFE79DED49
:10170000070A9FED5A1A30EE010A8DED070AFFE72E
:101710004CF6CD40C3F6CC500690002005909DEDD0
:10172000070A9DED061AB4EE410AF1EE10FA09DD42
:10173000FFE79DED070A9DED061A30EE410A8DED9B
:10174000050A1EE09DED070A9DED061AB1EE411A4D
:10175000B4EE410AF1EE10FA09DAFFE79DED070A4F
:101760009DED061A30EE010A8DED050A08E0002015
:10177000059042F2A851C2F20041C1F84C05FFE7C2
:10178000FFE79DED050AF1EE400A42F2A850C2F2D1
:101790000040039000F5A76002909FED300A13F01F
:1017A000B3FD0299039891ED070A00F5886090ED6A
:1017B0003A1A30EE010A80ED020A90ED020A90ED2D
:1017C000051AB1EE411AB4EE410AF1EE10FA0DDC41
:1017D000FFE742F2A850C2F2004000F2544090ED00
:1017E000000AB1EE400A8DED010A2AE042F2A8504B
:1017F000C2F2004000F5886090ED020A90ED051AF3
:10180000B4EE410AF1EE10FA0BDBFFE742F2A8500A
:10181000C2F2004000F2544090ED000A8DED000A43
:101820000AE042F2A850C2F2004000F5896090ED53
:10183000000A8DED000AFFE79DED000A8DED010A1B
:10184000FFE79DED010A42F2A850C2F2004000F508
:10185000896080ED000A08B080BD00BF0000000074
:10186000000034430000B4C3000034C30000B4439C
:1018700080B584B042F2A850C2F2004090F88005D2
:10188000002840F08480FFE742F2A850C2F20040F6
:1018900000F59C6016F0C8FAB5EE400AF1EE10FAB9
:1018A0000BDBFFE742F2A850C2F2004000F59C605B
:1018B00016F0BAFA8DED030A0CE042F2A850C2F21B
:1018C000004000F59C6016F0AFFAB1EE400A8DEDD5
:1018D000030AFFE79DED030A42F2A850C2F200405E
:1018E00000F24C4191ED001A80EE010A8DED020AE2
:1018F00000F59E6016F098FAB5EE400AF1EE10FA87
:101900000BDBFFE742F2A850C2F2004000F59E60F8
:1019100016F08AFA8DED010A0CE042F2A850C2F2EC
:10192000004000F59E6016F07FFAB1EE400A8DEDA2
:10193000010AFFE79DED020A9DED011A42F2A8504F
:10194000C2F2004000F58A6090ED002A81EE021A92
:1019500030EE010A9FED1F1AB4EE410AF1EE10FAC3
:101960000BDDFFE742F2A851C2F200414CF6CD4038
:10197000C3F6CC60C1F8740508E042F2A851C2F287
:1019800000414FF07E50C1F87405FFE708E042F2D5
:10199000A851C2F200414FF07C50C1F87405FFE736
:1019A00042F2A850C2F20040009000F2544191ED82
:1019B000000A00F2745191ED001A20EE010A00F5C0
:1019C000A46016F0CDFA0099D1F82805C1F84804B2
:1019D00004B080BDCDCC4C3D80B58AB042F2A85059
:1019E000C2F2004009900021C4F2D231016041608E
:1019F0000021C4F2962181600021C160016190ED57
:101A0000001A90ED030AB6EE002A8DED062A01EECB
:101A1000020AF0EE000ACDED070A21F0ADFB9DEDC4
:101A2000062ADDED070A09988DED080A90ED011AE6
:101A300090ED040A01EE020A21F09EFBB0EE401A7E
:101A40009DED080A30EE010A21F0EAFF099880EDC9
:101A5000050A90ED020A9FED421A20EE011A9FED51
:101A6000410A80EE010A9FED401A20EE010A80ED46
:101A7000060A0021CCF2E011C0F8641500F26450AF
:101A800090ED000A9FED391AB4EE410AF1EE10FA1A
:101A90000FDDFFE742F2A850C2F2004000F26450AE
:101AA00090ED000A9FED321A30EE010A80ED000A37
:101AB000FFE742F2A850C2F20040039040F20A5100
:101AC000A0F8681500F59C609FED2A0A8DED010ACB
:101AD000DFED290ACDED040A16F0AEF99DED010AFD
:101AE0000398DDED040A00F59E6016F0A5F9039851
:101AF000DDED040A00F5A4609FED200A8DED020AD9
:101B000016F09AF99DED020A0398DDED040A00F53E
:101B1000A06016F091F90398DDED040A00F5A260CB
:101B20009FED170A16F088F942F68840C2F200408D
:101B3000059000F6DC000A2101F08EFE059800F504
:101B4000E960022101F088FE059800F55A60322113
:101B500001F082FE00F018F800F0D2F80AB080BD63
:101B6000DB0FC940000070423C3C7C410000B443A4
:101B70000000B4C30000204200000000CDCCCC3DEA
:101B80009A99193E0000000080B582B042F2A85038
:101B9000C2F20040009000F5A7609FED0F0ADFED54
:101BA0000F0ACDED010AB1EE081AF1EE001AB2EEFD
:101BB0000E2A13F089FB0098DDED011A00F2B44003
:101BC000B2EE042AB0EE610AF0EE610AB0EE611ADC
:101BD00013F07AFB02B080BDCDCC4C3E000000007B
:101BE00081B046F29020C2F20040807A032808D1EA
:101BF000FFE742F2A851C2F20041002081F88005BF
:101C000000E0FFE742F2A850C2F2004090F88005E1
:101C1000D8BBFFE740F2EC50C2F200400078C007AA
:101C200090B3FFE742F2A850C2F2004090F870056E
:101C30000146009120B1FFE70098012811D021E072
:101C400046F29020C2F20040407A022808D1FFE715
:101C500042F2A851C2F20041012081F87005FFE76D
:101C600011E046F29020C2F20040407A032808D1E9
:101C7000FFE742F2A851C2F20041002081F870054E
:101C8000FFE700E0FFE7FFE700E0FFE701B0704794
:101C900083B002908DF807108DF806200298013865
:101CA00001460091072826D80099DFE801F0040CCE
:101CB000241C2424241442F2A851C2F20041FF2023
:101CC00081F8340518E042F2A851C2F20041012027
:101CD00081F8360510E042F2A851C2F2004101201D
:101CE00081F8370508E042F2A851C2F20041FF2016
:101CF00081F8350500E0FFE703B070470000000001
:101D000080B586B041F69143C0F600030F200090E5
:101D1000002103910222049214F01AF8009803990A
:101D200041F68153C0F600030322019214F010F82B
:101D30000399049A41F6F153C0F600034FF49860FA
:101D400014F006F80399049A42F29923C0F60003AE
:101D50004FF4804013F0FCFF019A03994AF6A15317
:101D6000C0F6010305931020029013F0F1FF0298D2
:101D70000399049A059B13F0EBFF06B080BD0000A9
:101D800083B002908DF807108DF806200298013874
:101D900001460091072826D80099DFE801F0040CDD
:101DA000241C2424241442F2A851C2F20041002031
:101DB00081F8340518E042F2A851C2F20041002037
:101DC00081F8360510E042F2A851C2F2004100202D
:101DD00081F8370508E042F2A851C2F20041002024
:101DE00081F8350500E0FFE703B070470000000010
:101DF00080B584B003908DF80B108DF80A2042F264
:101E0000A850C2F2004090F8700540B1FFE742F2DE
:101E1000A851C2F20041002081F8700541E003980A
:101E20000190402804D0FFE70198802816D036E0C2
:101E300042F2A850C2F20040009000F5A76013F0F3
:101E400033FA0098012180F8701500F2544191EDA9
:101E5000000A00F5A46016F083F821E042F2A850D1
:101E6000C2F2004000F5AB6090ED000AB5EE400A0A
:101E7000F1EE10FA0AD1FFE742F2A851C2F2004196
:101E80000020C4F27010C1F8580507E042F2A851D2
:101E9000C2F200410020C1F85805FFE700E0FFE76B
:101EA000FFE704B080BD000081B042F2A850C2F24A
:101EB00000400021CCF2E011C0F8641500F264503B
:101EC00090ED000A9FED2D1AB4EE410AF1EE10FAE2
:101ED0000FDBFFE742F2A850C2F2004000F264506C
:101EE00090ED000A9FED261A30EE010A80ED000AFF
:101EF000FFE742F2A850C2F2004000F2645090EDB9
:101F0000000AB5EE400AF1EE10FA0FDAFFE742F2EE
:101F1000A850C2F2004000F2645090ED000A9FED1C
:101F2000171A30EE010A80ED000AFFE70120ADF834
:101F30000200BDF80200012816D1FFE742F68840F2
:101F4000C2F20040D0F8981342F2A850C2F200400A
:101F500000F5A760416390ED0B1A90ED0D0A30EE8D
:101F6000410A80ED0A0A07E042F2A851C2F200419C
:101F70000020C1F86005FFE701B070470000B443DE
:101F80000000B4C30000000080B594B042F2A85035
:101F9000C2F20040119000F5AC600E9090ED000A86
:101FA0009FED7A1A8DED0F1A20EE010A9FED781A37
:101FB0008DED101A80EE010AB7EEC00A21F010FC78
:101FC0000E989DED0F2A9DED101AB7EEC00B8DED0A
:101FD000130A90ED000A20EE020A80EE010AB7EE25
:101FE000C00A20F0C9FFB7EEC00B8DED120A00F059
:101FF000D3F8119890F87005012819D1FFE742F243
:10200000A850C2F2004000F2745191ED001A00F5A0
:10201000886090ED030A20EE010A80ED030A91ED3D
:10202000001A90ED040A20EE010A80ED040AFFE791
:1020300040F2EC50C2F200400078C007B8B3FFE7AE
:1020400046F29020C2F200400A90B0F9040000EE7F
:10205000100AB8EEC00A42F2A850C2F200400D9039
:1020600000F588610B9191ED031A20EE010A9FEDB6
:10207000491A8DED0C1A80EE010A00F59C6015F0EE
:102080006FFF0A9A0B999DED0C1A0D98B2F9062074
:1020900000EE102AB8EEC00A91ED042A20EE020AE2
:1020A00080EE010A00F59E6015F05AFF2CE042F226
:1020B000A850C2F20040099000F58861089191EDA6
:1020C000040A90F9341590F93625114401EE101ADE
:1020D000B8EEC11A20EE010A00F59E6015F040FF2F
:1020E0000899099891ED030A90F9371590F935256B
:1020F000114401EE101AB8EEC11A20EE010A00F5E3
:102100009C6015F02DFFFFE742F2A850C2F200409C
:10211000009000F58861079100F59C60039015F030
:1021200083FE00988DED020A9DED120A8DED010AE5
:1021300000F59E60049015F077FE9DED012A9DED5F
:10214000021A039807999DED133A20EE030A91EEC7
:10215000420A81ED000A15F067FE04988DED060A2B
:102160009DED130A8DED050A15F05EFE9DED052A25
:102170009DED061A07989DED123A20EE030AA1EE96
:10218000420A80ED010A14B080BD00BFDB0F494058
:10219000000034430000254480B584B042F2A850CA
:1021A000C2F20040019000F59C6015F059FE0198C4
:1021B00000F58861029100F59E6015F051FE0198CE
:1021C00000F5A46015F04CFE0199029891ED000A0B
:1021D00091ED011A30EE010AB5EE001A20EE010A67
:1021E0008DED030A40F26412C2F20042138800EE41
:1021F000103AB8EEC00A9FED263A80EE030AB7EE19
:10220000C00A9FED1D2B80EE020B30EE000B9FED00
:102210001C1B20EE010B91ED024AB7EEC44A20EEE2
:10222000040BB7EEC00B80ED030AC368C1F850344D
:10223000128800EE102AB8EEC00A9DED034A80EE27
:10224000040A80EE030AB7EEC00A80EE020B30EEFD
:10225000000B20EE010B91ED021AB7EEC11A20EE31
:10226000010B9FED091B80EE010BB7EEC00B80ED5B
:10227000050A04B080BD00BFC3F5285C8FC22D40A5
:1022800000000060FB21094000000080BE9FF63F77
:10229000000070420000000082B001908DF8031031
:1022A0008DF8022042F2A850C2F2004090F83005AA
:1022B00040B9FFE742F2A851C2F20041012081F883
:1022C000300510E042F2A850C2F2004090F830050C
:1022D000012808D1FFE742F2A851C2F200410020D4
:1022E00081F83005FFE702B07047000000000000F1
:1022F00080B584B003908DED020ACDED010A8DED1D
:10230000001A039850309DED020ADDED010A9DEDA3
:10231000001AB1EE411A12F0E7FE039890ED190A87
:10232000DDED000A12F0F0FF0399C869C1F88000E2
:1023300004B080BD0000000087B006908DED050A56
:10234000CDED040A8DED031ACDED021A8DED012AB3
:10235000CDED002A05980699086004980699486012
:1023600003980699886002980699C86201980699B0
:10237000886200980699486207B070470000000024
:1023800080B583B084460598CDF808C0ADF8061036
:10239000ADF80420ADF802308DF80100BDF806005C
:1023A00002990880BDF8040002994880BDF8020037
:1023B000029988809DF801000299887103B080BD60
:1023C00080B543F6A860C2F2004003F0C5FB80BDB3
:1023D00080B543F62070C2F2004003F0BDFB80BD23
:1023E00080B544F21000C2F2004003F0B5FB80BD9E
:1023F00080B544F28800C2F2004003F0ADFB80BD1E
:1024000080B543F69870C2F2004003F0A5FB80BD92
:1024100080B544F26820C2F2004003F09DFB80BD0D
:1024200080B544F2F010C2F2004003F095FB80BD8D
:1024300080B544F20010C2F2004003F08DFB80BD75
:1024400080B544F27810C2F2004003F085FB80BDF5
:1024500083B002900298016801201022C4F20202A7
:102460009142009000F0A380FFE7029801680120EC
:102470002822C4F202029142009000F09880FFE707
:102480000298016801204022C4F2020291420090A9
:1024900000F08D80FFE70298016801205822C4F205
:1024A00002029142009000F08280FFE702980168EA
:1024B00001207022C4F202029142009077D0FFE71F
:1024C0000298016801208822C4F202029142009021
:1024D0006DD0FFE7029801680120A022C4F2020239
:1024E0009142009063D0FFE7029801680120B82272
:1024F000C4F202029142009059D0FFE702980168AD
:10250000012040F21042C4F20202914200904ED0EB
:10251000FFE702980168012040F22842C4F202025B
:102520009142009043D0FFE702980168012040F2F9
:102530004042C4F202029142009038D0FFE7029874
:102540000168012040F25842C4F202029142009018
:102550002DD0FFE702980168012040F27042C4F2DA
:1025600002029142009022D0FFE702980168012008
:1025700040F28842C4F202029142009017D0FFE775
:1025800002980168012040F2A042C4F20202914286
:1025900000900CD0FFE7029800684FF64831CBF668
:1025A000FD710844B0FA80F040090090FFE7009800
:1025B000C00740B3FFE70298007810384AF6AB2115
:1025C000CAF6AA21A0FB011000090190019800F0B1
:1025D000070144F22070C0F60200405C0299C86511
:1025E0000198042807D3FFE702990868042262F3E0
:1025F0000900886506E00299086840F2FF329043BE
:102600008865FFE705E00299086820F0FF0088650B
:10261000FFE70298806D03B07047000000000000E3
:1026200084B003900398006801900398016801202A
:1026300045F20842C5F60202914200904ED0FFE7F3
:1026400003980168012045F21C42C5F6020291423E
:10265000009043D0FFE703980168012045F2304223
:10266000C5F602029142009038D0FFE70398016856
:10267000012045F24442C5F60202914200902DD05D
:10268000FFE703980168012045F25842C5F60202AF
:102690009142009022D0FFE703980168012045F2A3
:1026A0006C42C5F602029142009017D0FFE70398F2
:1026B0000168012045F28042C5F602029142009075
:1026C0000CD0FFE7039800684AF66C31CAF2FD713E
:1026D0000844B0FA80F040090090FFE70098C00776
:1026E00010B3FFE70398007808384CF6CD41CCF6DC
:1026F000CC41A0FB011000090290029945F60000B0
:10270000C5F6020000EB810003990866039945F6BF
:102710008000C5F602004866029800F01F01012003
:1027200088400399886635E00398007810384AF6A7
:10273000AB21CAF6AA21A0FB011000090290019862
:1027400040F2B841C4F2020188420CD8FFE7019878
:1027500040F21041C4F20201884204D3FFE702981C
:1027600008300290FFE7029940F60000C4F2020030
:1027700000EB810003990866039940F68000C4F2DB
:1027800002004866029800F01F010120884003996A
:102790008866FFE704B0704783B002900298007922
:1027A00001900198002800F08A80FFE7019808282E
:1027B00000F28580FFE702980168012045F2084297
:1027C000C5F60202914200904ED0FFE702980168E0
:1027D000012045F21C42C5F602029142009043D00E
:1027E000FFE702980168012045F23042C5F6020277
:1027F0009142009038D0FFE702980168012045F22D
:102800004442C5F60202914200902DD0FFE70298A3
:102810000168012045F25842C5F60202914200903B
:1028200022D0FFE702980168012045F26C42C5F60C
:1028300002029142009017D0FFE702980168012040
:1028400045F28042C5F60202914200900CD0FFE7AB
:10285000029800684AF66C31CAF2FD710844B0FA79
:1028600080F040090090FFE70098C00780B1FFE7C3
:10287000019945F6FC00C5F6020000EB81000299C3
:10288000C866029945F64010C5F6020008670FE0D9
:10289000019940F6FC00C4F2020000EB81000299AD
:1028A000C866029940F64010C4F202000867FFE7CC
:1028B0000198411E0120884002994867FFE703B054
:1028C000704700000000000085B0049000208DF8E3
:1028D0000F000498806918BBFFE70498806A029093
:1028E00003281BD80299DFE801F0020D02180498B2
:1028F00090F82F00C00720B1FFE701208DF80F00EE
:10290000FFE70CE00498C06AB0F1C07F04D1FFE794
:1029100001208DF80F00FFE701E000E0FFE747E04E
:1029200004988069B0F5005F26D1FFE70498806ABB
:10293000019003281ED80199DFE801F00206021178
:1029400001208DF80F0016E0049890F82F00C007C2
:1029500020B1FFE701208DF80F00FFE70BE004989E
:10296000C06AB0F1C07F04D1FFE701208DF80F00ED
:10297000FFE700E0FFE71AE00498806A0090032870
:1029800004D3FFE70098032804D00EE001208DF85F
:102990000F000BE0049890F82F00C00720B1FFE76C
:1029A00001208DF80F00FFE700E0FFE7FFE7FFE7FA
:1029B0009DF80F0005B0704789B008900791069206
:1029C00005930898806D04900898806D039008988E
:1029D000016801201022C4F202029142029000F02C
:1029E0000381FFE70898016801202822C4F202024F
:1029F0009142029000F0F880FFE7089801680120FA
:102A00004022C4F202029142029000F0ED80FFE702
:102A10000898016801205822C4F2020291420290F3
:102A200000F0E280FFE70898016801207022C4F2FC
:102A300002029142029000F0D780FFE708980168F7
:102A400001208822C4F202029142029000F0CC8060
:102A5000FFE7089801680120A022C4F20202914217
:102A6000029000F0C180FFE7089801680120B822B9
:102A7000C4F202029142029000F0B680FFE708988B
:102A80000168012040F21042C4F202029142029019
:102A900000F0AA80FFE708980168012040F2284270
:102AA000C4F202029142029000F09E80FFE7089873
:102AB0000168012040F24042C4F2020291420290B9
:102AC00000F09280FFE708980168012040F2584228
:102AD000C4F202029142029000F08680FFE708985B
:102AE0000168012040F27042C4F202029142029059
:102AF0007AD0FFE708980168012040F28842C4F2CA
:102B00000202914202906FD0FFE70898016801200D
:102B100040F2A042C4F202029142029064D0FFE768
:102B200008980168012040F2B842C4F202029142C2
:102B3000029059D0FFE708980168012045F2084249
:102B4000C5F60202914202904ED0FFE70898016854
:102B5000012045F21C42C5F602029142029043D088
:102B6000FFE708980168012045F23042C5F60202ED
:102B70009142029038D0FFE708980168012045F2A1
:102B80004442C5F60202914202902DD0FFE7089818
:102B90000168012045F25842C5F6020291420290B6
:102BA00022D0FFE708980168012045F26C42C5F683
:102BB00002029142029017D0FFE7089801680120B5
:102BC00045F28042C5F60202914202900CD0FFE726
:102BD000089800684AF66C31CAF2FD710844B0FAF0
:102BE00080F040090290FFE70298C00770B1FFE74C
:102BF0000898416E806E48600898C06E28B1FFE763
:102C00000898016F406F4860FFE7FFE70898016888
:102C100001201022C4F202029142019000F0A38030
:102C2000FFE70898016801202822C4F202029142BD
:102C3000019000F09880FFE7089801680120402289
:102C4000C4F202029142019000F08D80FFE70898E3
:102C5000016801205822C4F202029142019000F062
:102C60008280FFE70898016801207022C4F2020206
:102C70009142019077D0FFE70898016801208822EF
:102C8000C4F20202914201906DD0FFE708980168FA
:102C90000120A022C4F202029142019063D0FFE71A
:102CA000089801680120B822C4F202029142019002
:102CB00059D0FFE708980168012040F21042C4F2A1
:102CC0000202914201904ED0FFE70898016801206E
:102CD00040F22842C4F202029142019043D0FFE741
:102CE00008980168012040F24042C4F20202914279
:102CF000019038D0FFE708980168012040F258425F
:102D0000C4F20202914201902DD0FFE708980168B9
:102D1000012040F27042C4F202029142019022D09E
:102D2000FFE708980168012040F28842C4F20202DD
:102D30009142019017D0FFE708980168012040F206
:102D4000A042C4F20202914201900CD0FFE7089821
:102D500000684FF64831CBF6FD710844B0FA80F0B8
:102D600040090190FFE70198C00750B3FFE70898BA
:102D7000C06D00F01F013F208840049988600898CA
:102D80000168086820F4802008600598089909689F
:102D9000486008988068402809D1FFE7069808999C
:102DA00009688860079808990968C86008E007986A
:102DB000089909688860069808990968C860FFE75B
:102DC00082E008980168012045F20842C5F6020237
:102DD000914200904ED0FFE708980168012045F22B
:102DE0001C42C5F602029142009043D0FFE70898CA
:102DF0000168012045F23042C5F60202914200907E
:102E000038D0FFE708980168012045F24442C5F632
:102E10000202914200902DD0FFE70898016801203E
:102E200045F25842C5F602029142009022D0FFE7D7
:102E300008980168012045F26C42C5F602029142F1
:102E4000009017D0FFE708980168012045F2804202
:102E5000C5F60202914200900CD0FFE70898006886
:102E60004AF66C31CAF2FD710844B0FA80F04009AC
:102E70000090FFE70098C00720B3FFE70898C06DF7
:102E800000F01F01012088400399486005980899C7
:102E90000968486008988068402809D1FFE70698CB
:102EA000089909688860079808990968C86008E067
:102EB0000798089909688860069808990968C860A1
:102EC000FFE700E0FFE7FFE709B070470000000000
:102ED00080B584B00390029103990878497840EA5C
:102EE00001206FF3DF200299088002990888A0F57D
:102EF00080600880039948788978C00840EA4110CA
:102F00006FF3DF200299488002994888A0F580601D
:102F1000488003998878CA780979800940EA820054
:102F200040EA81206FF3DF20029988800299888827
:102F3000A0F580608880039908794979400840EAC3
:102F4000C1106FF3DF200299C8800299C888A0F5EC
:102F50008060C8800298B0F9000000EE100AB8EE58
:102F6000C00ADFED3F0ACDED010A00F005F9DDED05
:102F7000010ABDEEC00A10EE100A029908800298FC
:102F8000B0F9020000EE100AB8EEC00A00F0F4F842
:102F9000DDED010ABDEEC00A10EE100A029948806C
:102FA0000298B0F9040000EE100AB8EEC00A00F072
:102FB000E3F8DDED010ABDEEC00A10EE100A029939
:102FC00088800298B0F9060000EE100AB8EEC00A38
:102FD00000F0D2F8BDEEC00A10EE100A0299C880C7
:102FE0000299087A88720299487AC87203984079DF
:102FF00080090299087203984079C0F30110029980
:10300000487203998879C97940EA01200299888138
:103010000399087A497A40EA01200299C881039904
:10302000887AC97A40EA0120029908820398007BD5
:10303000029988740398407B0299C8740399887B2D
:10304000C97B40EA0120029988820399087C497C67
:1030500040EA0120A0F580600299C88204B080BDDA
:10306000000020420000000082B001900091019811
:10307000008800990880019840880099488001984C
:103080008088009988800198C08840420099C88053
:103090000198007A009948720198407A00998872E4
:1030A0000198807A009948730198C07A00998873D2
:1030B00001988089009908820198C0890099488206
:1030C0000198008A009988820198807C009988750F
:1030D0000198C07C0099C8750198808A009908837E
:1030E0000198C08A0099488302B070470000000030
:1030F00081B000904EF6FC51CEF20001086840F01D
:103100008070086041F20401CEF2000100200860E6
:1031100041F20002CEF20002116841F0010111609B
:10312000009944F24022C0F20F024A4340F2EC21DF
:10313000C2F200410A600A6844F6D353C1F2620346
:10314000A2FB0332920940F2F023C2F200431A605C
:1031500009684DF68362C4F21B32A1FB0221890C7F
:1031600040F2F422C2F20042116040F2F821C2F2B1
:103170000041086001B0704783B08DED010ACDEDCC
:10318000000A9DED010A9DED001AB1EE411AB4EE60
:10319000410AF1EE10FA0DDDFFE79DED010A9DED0C
:1031A000001AB4EE410AF1EE10FA03DAFFE700204C
:1031B000029002E001980290FFE79DED020A03B041
:1031C0007047000000000000704700000000000091
:1031D00080B582B08DF807009DF807000C2818D143
:1031E000FFE746F2EC20C2F20040016801310160C5
:1031F0000068022801D8FFE70BE046F2EC20C2F29B
:10320000004000680B2801D3FFE7FFE7FDF738FB1C
:10321000FFE702B080BD000081B08DF8030001B06F
:10322000704700000000000080B584B06421019167
:103230000023039318461A4600F06EF80199039B89
:10324000012000901A4600F067F80199039B0220C4
:103250001A4600F061F80199039B03201A4600F01A
:103260005BF80199039B04201A4600F055F8019978
:10327000039B05201A4600F04FF80199039B062096
:103280001A4600F049F80199039B07201A4600F0FE
:1032900043F800980199039B42F64032C2F2004283
:1032A00082F8580082F86C0008201A4600F034F8C2
:1032B0000199039B09201A4600F02EF80199039BFF
:1032C0000A201A4600F028F8039B0B204FF4FA71ED
:1032D00002911A4600F020F80199039B0C201A462F
:1032E00000F01AF80299039B42F23942C0F601023B
:1032F0000D2000F011F80199039B0E201A4600F0F2
:103300000BF80299039B0F201A4600F005F804B051
:1033100080BD00000000000084B08DF80F00029115
:103320000192009302989DF80F1001EB810242F682
:103330004031C2F2004141F822009DF80F0000EB3D
:10334000800001EB80020020107201989DF80F2090
:1033500002EB820201EB8202D06000989DF80F2000
:1033600002EB820201EB8201086104B070470000A9
:1033700080B582B08DF8070006F04AFA9DF8071074
:1033800001EB810242F64031C2F2004101EB8201C1
:10339000486002B080BD000081B0EFF3108072B6CB
:1033A0000090FFE7FEE7000044F60C01C5F60201BD
:1033B000086840F002000860FFE744F60400C5F624
:1033C000020000688004002801D4FFE7F5E7704799
:1033D00080B544F2E020C2F2004005F0FDF880BD67
:1033E00080B544F2E020C2F2004005F0F5F880BD5F
:1033F00080B544F28030C2F2004005F0EDF880BDA7
:1034000080B544F28030C2F2004005F0E5F880BD9E
:1034100080B544F22040C2F2004005F0DDF880BDE6
:1034200080B544F22040C2F2004005F0D5F880BDDE
:1034300084B002900298406B009002980068D0F827
:1034400084004FF6FC718843009940EA810002999C
:103450000968C1F8840002980068D0F8840020F45C
:103460007F00029A1168926B40EA0240C1F8840022
:103470000298816B00980844009002980068D0F888
:1034800088006FF38F00009940EA81000299096873
:10349000C1F8880002980068D0F8880020F4FE0087
:1034A000029A1168D26B40EA0240C1F88800029883
:1034B000C16B009800EB4100009002980068D0F8C2
:1034C000A0006FF38F00009940EA8100029909681B
:1034D000C1F8A00002980068D0F8A00020F4FE0017
:1034E000029A1168126C40EA0240C1F8A0000299E9
:1034F000086C496C009A00FB01200090029800685B
:10350000D0F8B0006FF38F00009940EA8100029973
:103510000968C1F8B00002980068D0F8B00020F443
:10352000FE00029A1168926C40EA0240C1F8B000B5
:103530000299886CC96C009A00FB012000900298E7
:103540000068D0F8AC006FF38F00009940EA81006A
:1035500002990968C1F8AC000299086D496D009A9A
:1035600000FB0120009002980068D0F8F0006FF393
:103570008F00009940EA810002990968C1F8F000C3
:1035800002980068D0F8F00020F47C10029A1168CC
:10359000926D40EA0240C1F8F0000298816D0098F7
:1035A00000EB4100009002980068D0F8C0006FF373
:1035B0008F00009940EA810002990968C1F8C000B3
:1035C00002980068D0F8C00020F47C10029A1168BC
:1035D000D26D40EA0240C1F8C00002980068D0F8FD
:1035E000C00020F07C50029A1168126E40EA02601E
:1035F000C1F8C00002994A6B4AF60040C4F20000CC
:1036000000EB8200C86602998A6BC86E00EB8200EC
:1036100008670299CA6B086F00EBC20048670299FD
:103620000A6C4B6C486F5A4300EB82008867029922
:103630008A6CCB6C886F5A4300EB8200C867029992
:103640000A6D4B6DC86F5A4300EB8200C1F88000D1
:1036500002998A6DD1F8800000EBC200C1F88400A5
:103660000299CA6D8B6ED1F884005A4300EB820038
:10367000C1F8880002990A6E8B6ED1F888005A430F
:1036800000EB8200C1F890000298D0F890004DF253
:10369000FD31C4F2000188420FD3FFE70299D1F84F
:1036A0009C0040F02000C1F89C000299032081F8A2
:1036B000980001208DF80F0017E00298C06E01906D
:1036C000FFE701980299D1F89010884208D2FFE7ED
:1036D000019900200860FFE7019804300190F0E7AD
:1036E000FFE700208DF80F00FFE79DF80F0004B002
:1036F000704700000000000088B007900691059216
:1037000004930698406848B9FFE706980168826804
:103710000069104340EA8140039009E0069801687F
:10372000826800691043084340F080400390FFE73F
:103730000698D0F820C0C16842698369C06940EA30
:103740000C601843104340EA014002900798826ED3
:10375000D0F884000499514300EB81000190039854
:10376000019908600198043001900298019908605D
:1037700001980430019000200090FFE7009806991E
:10378000CA6844F21071C0F60201895C88420DD209
:10379000FFE70598009940580199086001980430A6
:1037A0000190FFE7009804300090E7E708B0704709
:1037B00085B002A9009101460098049180ED010AAC
:1037C00000200290ADF80600FFE7BDF8060004995E
:1037D000B1F89011013988421DDAFFE70098049A88
:1037E000BDF8063002EB8301496842F823100499C2
:1037F000BDF8062001EB820191ED001A90ED000A60
:1038000030EE010A80ED000AFFE7BDF80600013046
:10381000ADF80600D9E700980399049AB2F8903100
:1038200002EB830242F8041C90ED011A90ED000AAD
:1038300030EE010A80ED000A90ED000A0498B0F81D
:10384000900101EE100AB8EEC11A80EE010A05B02F
:10385000704700000000000082B00190ADF8021037
:10386000BDF802000199A1F890010020ADF8000018
:10387000FFE7BDF80000BDF8021088420DDAFFE74F
:103880000199BDF80020002041F82200FFE7BDF8B3
:1038900000000130ADF80000EBE702B07047000017
:1038A00084B002900191ADF80220029828B9FFE798
:1038B0004FF6FF70ADF80E0021E0FFE70198411EC2
:1038C0000191B8B1FFE70298411C029100788DF890
:1038D0000100BDF802109DF801004840C2B245F257
:1038E000B210C0F6020030F8120080EA1120ADF8E4
:1038F0000200E3E7BDF80200ADF80E00FFE7BDF8F7
:103900000E0004B07047000082B00190ADF80210C4
:103910008DF80120FFE7BDF80200411EADF802104E
:1039200098B1FFE79DF8010001994A1C01920978BE
:1039300048408DF800009DF8001044F20060C0F689
:103940000200405C8DF80100E5E79DF8010002B03F
:10395000704700000000000040F20040C2F200404A
:1039600090ED690A7047000040F20040C2F200404A
:1039700090ED680A7047000080B584B04EF60000F4
:10398000C1F6F170006803904EF60400C1F6F170C4
:10399000006802904EF60800C1F6F17000680190D0
:1039A0000199039808440390039888B1FFE70398AE
:1039B00040F22421C2F200410091023108220EF0AF
:1039C000DFFC00990298123104220EF0D9FCFFE7C7
:1039D00004B080BD0000000040F20040C2F2004090
:1039E00090ED6A0A7047000082B001908DF80310D4
:1039F0008DF8022042F68840C2F2004090EDA80AFD
:103A00009FED1A1AB4EE410AF1EE10FA10DDFFE74D
:103A100042F68841C2F200410020C4F2A000C1F881
:103A2000A0020020C1F8F001012081F8360F1BE050
:103A300042F68840C2F2004090EDA80AB2EE0E1A9B
:103A4000B4EE410AF1EE10FA0DDAFFE742F68841D2
:103A5000C2F200410020C4F2C820C1F8A002002038
:103A600081F8360FFFE7FFE702B07047000096428B
:103A700080B540F2EC50C2F200400078C00718B1A7
:103A8000FFE700F0C5FA02E000F0CAF9FFE780BDE9
:103A900080B542F68841C2F20041012081F8340F1E
:103AA0004FF2A040C2F20140007818B1FFE700F0E9
:103AB000BBFE0EE040F2EC50C2F200400078C007BE
:103AC00018B1FFE700F0A4FA02E000F0A9F9FFE75F
:103AD000FFE780BD0000000080B584B042F688405A
:103AE000C2F2004003900021C4F270210191C0F89D
:103AF000F8110021CCF25011C0F8FC110021029104
:103B0000C0F8E011D0F8E021C0F8F0210022C4F2A2
:103B1000BE22C0F8A8220023C4F2A003C0F8AC3231
:103B2000C0F88C22D0F88C22C0F8A02241604268F4
:103B3000C261C0F8A810D0F8A810C0F8C01000F5F5
:103B40005A603221FFF788FE039800F6DC000A2154
:103B5000FFF782FE039800F5E9600221FFF77CFE83
:103B6000019A0298039981F8340F4870C1F83823FC
:103B7000C1F83C034FF07E52C1F840230022C4F24A
:103B80002012C1F844230022CCF2A002C1F848233D
:103B9000C1F84C03012081F8500300F005F800F053
:103BA0002BFA04B080BD000080B58EB042F688408C
:103BB000C2F20040079000F50270B1EE080ADFED96
:103BC000620ACDED0D0A9FED611ADFED611A9FEDDE
:103BD000612A8DED062A11F077FB9DED062A0798E4
:103BE00000F516709FED5C0ADFED5C0ACDED020A70
:103BF0009FED5B1ADFED5B1ADFED5B2AFEF79CFBA6
:103C0000079800F50C70BFEE000ADFED580ABAEE17
:103C1000001AF7EE001ACDED001AB2EE042A8DED6F
:103C2000052A11F051FBDDED001A9DED051A0798EC
:103C300000F536709FED4E0ADFED4E0AB2EE0E2A09
:103C400011F042FB9DED062A079824309FED4A0AA9
:103C5000DFED4A0AB0EE0C1ADFED491ACDED011A7C
:103C600011F032FB079874309FED460ADFED460AEB
:103C70009FED461ADFED461A9FED462ADFED462AF4
:103C8000FEF75AFBDDED011A07984C309FED430A11
:103C9000DFED430ACDED040A9FED421A9FED422A63
:103CA0008DED0C2A11F010FBDDED040A9DED051AD7
:103CB000DDED061A07989DED0C2AC8309FED3B0AF2
:103CC0008DED030A11F000FBDDED022A07989DED52
:103CD0000C2A00F58C709FED360A8DED080AF6EE81
:103CE000000ACDED090A9FED331A8DED0A1ADFEDBA
:103CF000321ACDED0B1AFEF71FFB9DED030ADDED29
:103D0000040A9DED051ADDED061A07989DED0C2AB3
:103D1000DDED0D2A00F5A6700FF076FB07989DEDFE
:103D2000080ADDED090A9DED0A1ADDED0B1A9DED7D
:103D30000C2A9DED0D3A00F5D270DFED202A0FF030
:103D40006FFA0EB080BD00BF00000000CDCCCC3EAD
:103D50000000FA4300C0DA45000096423333333F97
:103D60000000F042000048439A99193F6F1283BA4D
:103D70006666E63F6F12833A9A99B9400AD7A33C28
:103D800000007A44000014428FC2F53C00002D432D
:103D900000002F440000FA446666E63E0000A5439A
:103DA000CDCCCC3D00E02B460060EA460000484206
:103DB00000008C430000F0430000C842CDCC4C3FD3
:103DC00042F68840C2F2004000210170007828BB12
:103DD000FFE746F29020C2F20040B0F91A00B0F5B9
:103DE000C87F08DCFFE746F29020C2F20040C07DA9
:103DF000012809D1FFE742F68841C2F200410120C3
:103E0000487081F8340F08E042F68841C2F2004160
:103E10000020487081F8340FFFE700E0FFE77047AB
:103E200080B588B042F68840C2F2004090F8340F66
:103E3000C00768B1FFE742F68841C2F200414DF287
:103E40000A70C3F6A330C1F8740AC1F8700A10E012
:103E500042F68841C2F200414DF20A70C3F62330A7
:103E6000C1F8740A44F2D040C3F65830C1F8700A61
:103E7000FFE746F29020C2F200400590B0F9100032
:103E800000EE100AB8EEC00A42F68840C2F20040C6
:103E9000079000F5E961069191EDCB1A20EE010A39
:103EA00000F6DC00FFF784FC05990698079BB0EE4E
:103EB000401A93ED300A30EE410A83ED300AD3F810
:103EC000C020DA61B1F9121000EE101AB8EEC00A83
:103ED00090EDCA1A20EE010AFFF76AFC0798B0EECF
:103EE000401A90ED7C0A30EE010A80ED7C0A90EDDC
:103EF000A80A90EDAB1AB4EE410AF1EE10FA09DC13
:103F0000FFE742F68840C2F2004090EDAB0A8DED2B
:103F1000040A24E042F68840C2F2004090EDA80A6C
:103F200090EDAA1AB4EE410AF1EE10FA09DBFFE7B0
:103F300042F68840C2F2004090EDAA0A8DED030AD5
:103F400008E042F68840C2F2004090EDA80A8DEDEC
:103F5000030AFFE79DED030A8DED040AFFE79DEDDF
:103F6000040A42F68840C2F2004080EDA80A90EDB3
:103F70007C0A90ED7F1AB4EE410AF1EE10FA09DCEA
:103F8000FFE742F68840C2F2004090ED7F0A8DEDD7
:103F9000020A24E042F68840C2F2004090ED7C0A1A
:103FA00090ED7E1AB4EE410AF1EE10FA09DBFFE75C
:103FB00042F68840C2F2004090ED7E0A8DED010A83
:103FC00008E042F68840C2F2004090ED7C0A8DED98
:103FD000010AFFE79DED010A8DED020AFFE79DED65
:103FE000020A42F68840C2F2004080ED7C0A08B026
:103FF00080BD00000000000080B543F6E913C0F664
:1040000000034FF400500021022211F0A1FE80BDF8
:1040100085B046F29021C2F20041B1F9000000EEF5
:10402000100AB8EEC00A9FED821A20EE010A9FED39
:10403000811A80EE011A42F68840C2F200400490D4
:1040400090ED300A30EE010A80ED300AD0F8C02041
:10405000C261B1F9021000EE101AB8EEC00B9FED6C
:10406000701B20EE010B9FED701B80EE011B90ED8D
:104070007C0AB7EEC00A30EE010BB7EEC00B80ED44
:104080007C0A90ED7C0A90ED7F1AB4EE410AF1EEC5
:1040900010FA09DCFFE742F68840C2F2004090EDDA
:1040A0007F0A8DED030A24E042F68840C2F2004008
:1040B00090ED7C0A90ED7E1AB4EE410AF1EE10FA12
:1040C00009DBFFE742F68840C2F2004090ED7E0A2D
:1040D0008DED020A08E042F68840C2F2004090ED01
:1040E0007C0A8DED020AFFE79DED020A8DED030AC1
:1040F000FFE79DED030A42F68840C2F2004080EDE2
:104100007C0A46F29020C2F20040407A012838D161
:10411000FFE746F29020C2F20040407B032830D1F6
:10412000FFE746F2F020C2F2004090F82003C007FB
:1041300038BBFFE742F68840C2F2004090EDA80A83
:104140009FED3D1AB4EE410AF1EE10FA0DDAFFE7E9
:1041500042F68841C2F200410020C4F2C820C1F8F2
:10416000A002002081F8360F0AE042F68841C2F230
:1041700000410020C1F8A002012081F8360FFFE7BE
:10418000FFE746F29021C2F20041487A487342F6B6
:104190008840C2F2004090EDA80A90EDAB1AB4EE50
:1041A000410AF1EE10FA09DCFFE742F68840C2F25C
:1041B000004090EDAB0A8DED010A24E042F6884004
:1041C000C2F2004090EDA80A90EDAA1AB4EE410A9E
:1041D000F1EE10FA09DBFFE742F68840C2F2004038
:1041E00090EDAA0A8DED000A08E042F68840C2F27E
:1041F000004090EDA80A8DED000AFFE79DED000A52
:104200008DED010AFFE79DED010A42F68840C2F2FA
:10421000004080EDA80A05B0704700BF00BF00BF96
:10422000666666666666D63F0000000000A08440B1
:104230009A9999BE00002544000048420000000001
:1042400080B586B040F2A831C2F2004191ED050A76
:10425000B1EE400A42F68840C2F2004080ED2F0ADB
:10426000496BC0F8AC10B0F8500441F6BD61401A7B
:10427000ADF81600BDF91600B0F5805F07DDFFE769
:10428000BDF81600A0F50050ADF816000DE0BDF920
:10429000160010F5805F07DAFFE7BDF8160000F59D
:1042A0000050ADF81600FFE7FFE742F68840C2F283
:1042B0000040039090ED2B0ABDF9161001EE101A84
:1042C000B8EEC11A9FEDE02A21EE021A9FEDDF2A17
:1042D000A1EE020A80ED020AD0F87813816140F263
:1042E000A831C2F2004191ED040AB1EE400A80ED1E
:1042F0007B0A096BC0F8E41100F2946191ED000AA9
:104300009FEDD31A30EE010A80EDA50A90ED790AEF
:1043100000F5AB6191ED081A9FEDCE2A31EE021A3D
:104320009FEDCD2AA1EE020A9FEDCC1A30EE010AD4
:1043300080EDA40AD0F87426C0F89C2291ED110AF1
:104340009FEDC72A30EE020A30EE410A9FEDC51AF2
:1043500030EE013A90ED790A90EDA52A30EE030A8D
:1043600030EE420A42F2A851C2F2004101F5AF61BB
:1043700081ED000A90EDA50AB4EE410AF1EE10FAC3
:104380000DDDFFE742F68840C2F2004090EDA50A3D
:104390009FEDAE1A30EE010A80EDA50A1BE042F651
:1043A0008840C2F2004090EDA50A9FEDAF1AB4EE2E
:1043B000410AF1EE10FA0DDAFFE742F68840C2F248
:1043C000004090EDA50A9FEDA91A30EE010A80ED9C
:1043D000A50AFFE7FFE742F68840C2F2004090EDF1
:1043E000A50A9FEDA31AB4EE410AF1EE10FA1DDB07
:1043F000FFE742F68840C2F2004090EDA50A9FED2B
:10440000E71AB4EE410AF1EE10FA0FDCFFE742F6CC
:104410008841C2F200410020C4F27020C1F80002BD
:104420000020CCF25010C1F8040271E042F688403E
:10443000C2F2004090EDA50AB2EE041AB4EE410AB1
:10444000F1EE10FA28DBFFE742F68840C2F20040A6
:1044500090EDA50A9FEDD01AB4EE410AF1EE10FAE4
:104460001ADAFFE742F68840C2F200400021C4F2A7
:10447000BA21C0F8001290EDA50ABBEE021A20EE98
:10448000010AB2EE041A80EE010A9FEDC51A30EE61
:10449000010A80ED810A3AE042F68840C2F200400B
:1044A00090EDA50AB2EE0E1AB4EE410AF1EE10FA42
:1044B0001DDAFFE742F68840C2F2004090EDA50AFF
:1044C000B9EE041AB4EE410AF1EE10FA0FDBFFE781
:1044D00042F68841C2F200410020C4F2BA20C1F87D
:1044E00000020020C4F2B420C1F804020EE042F63B
:1044F0008841C2F200410020C4F2BA20C1F8000293
:104500000020CCF22010C1F80402FFE7FFE7FFE72C
:1045100042F68840C2F20040029042F2A851C2F234
:10452000004101F5AF6191ED002A90ED800A90ED18
:10453000A51A30EE020A9FED952A31EE421A30EEAE
:10454000010A80ED7E0A91ED003A90ED810A90ED2E
:10455000A51A30EE030A31EE421A30EE010A80ED60
:104560007F0A0021049190ED2B0A90ED2C1A30EE79
:10457000410A9FED8C1AB4EE410AF1EE10FA11DAFD
:10458000FFE742F68840C2F2004090ED2B0A90ED22
:104590002C2A9FED801A31EE421A30EE010A8DED81
:1045A000040A30E042F68840C2F2004090ED2B0A47
:1045B00090ED2C1A30EE410A9FED7B1AB4EE410AC1
:1045C000F1EE10FA11DDFFE742F68840C2F200403A
:1045D00090ED2B0A90ED2C1A9FED6B2A30EE020A1B
:1045E00030EE410A8DED040A0CE042F68840C2F23A
:1045F000004090ED2B0A90ED2C1A30EE410A8DED23
:10460000040AFFE7FFE79DED041A42F68840C2F274
:10461000004090ED2D0A30EE010A80ED2D0AFFE7F3
:1046200042F68840C2F2004090ED2D1A90ED300A1B
:1046300030EE410A01209FED561AB4EE410AF1EE28
:1046400010FA01902BDA15E0000000390000B4C325
:104650002656544250761BBEE12E65420000B442FD
:104660004D2D0BC100003443000034C30000B4439F
:104670000000704242F68840C2F2004090ED2D0AE0
:1046800090ED301A30EE410A9FED411A0020B4EE51
:10469000410AF1EE10FAA8BF01200190FFE701984E
:1046A000C00700283FD0FFE742F68840C2F2004032
:1046B00090ED2D1A90ED300A30EE410A9FED341A3C
:1046C000B4EE410AF1EE10FA0DDBFFE742F6884046
:1046D000C2F2004090ED300A9FED2B1A30EE010A35
:1046E00080ED300AFFE742F68840C2F2004090EDCC
:1046F0002D0A90ED301A30EE410A9FED251AB4EEE6
:10470000410AF1EE10FA0DDBFFE742F68840C2F2F3
:10471000004090ED300A9FED1F1A30EE010A80ED47
:10472000300AFFE77CE742F68840C2F20040D0F84A
:10473000AC10C0F8B01090ED2D0ABDF9161001EEC6
:10474000101AB8EEC11A9FED0F2A21EE021A9FED42
:104750000E2AA1EE020A80ED040A4FF2A041C2F235
:104760000141097800EE101AB8EE400A00F55A60CF
:10477000FFF71EF84FF2D440C2F2014080ED000A6C
:1047800006B080BD000000390000B4C30000B44290
:10479000000034430000B443000070420000DC42DB
:1047A0000000BA42000087C30000874300000000F9
:1047B00046F2CC10C2F20040007842F2A851C2F298
:1047C000004191F87015884201D1FFE72AE042F2DA
:1047D000A850C2F2004090F8701546F2CC12C2F216
:1047E0000042117090F8700501280DD1FFE742F6E4
:1047F0008841C2F2004148F20000C4F23B604866C2
:104800004FF07C5008650DE042F68841C2F200414D
:104810000020C4F27A4048664CF6CD40C3F6CC5036
:104820000865FFE77047000084B042F68840C2F296
:10483000004090ED300A9FEDB91A80EE010AB5EE06
:10484000400AF1EE10FA13DDFFE742F68840C2F2AB
:10485000004090ED300A9FEDB11A80EE010AB6EEED
:10486000001A30EE010ABDEEC00A8DED030A12E017
:1048700042F68840C2F2004090ED300A9FEDA71A40
:1048800080EE010ABEEE001A30EE010ABDEEC00A4B
:104890008DED030AFFE79DED030AB8EEC01A4FF253
:1048A000A040C2F2014090ED050A9FED9C2AA1EEC6
:1048B000020A42F68840C2F2004090ED301A30EE13
:1048C000410A9FED971AB4EE410AF1EE10FA13DD9A
:1048D000FFE79DED030AB8EEC02A4FF2A040C2F2F6
:1048E000014090ED050A9FED8D1AA2EE010A30EE0F
:1048F000410A8DED020A42E09DED030AB8EEC01AAE
:104900004FF2A040C2F2014090ED050A9FED832ACC
:10491000A1EE020A42F68840C2F2004090ED301A41
:1049200030EE410A9FED7F1AB4EE410AF1EE10FA23
:1049300013DAFFE79DED030AB8EEC02A4FF2A0405C
:10494000C2F2014090ED050A9FED741AA2EE010A31
:1049500030EE010A8DED020A10E09DED030AB8EE7B
:10496000C01A4FF2A040C2F2014090ED050A9FED3F
:104970006B2AA1EE020A8DED020AFFE7FFE702991A
:1049800042F68840C2F20040C0F8C01090ED021A12
:1049900090ED2B0A30EE410A4FF62C00C2F2014096
:1049A00080ED000AFFE74FF62C00C2F2014090EDC7
:1049B000000A9FED5B1AB4EE410AF1EE10FA0DDD2C
:1049C000FFE74FF62C00C2F2014090ED000A9FED88
:1049D000561A30EE010A80ED000AE4E7FFE74FF6D1
:1049E0002C00C2F2014090ED000A9FED4E1AB4EE89
:1049F000410AF1EE10FA0DDAFFE74FF62C00C2F291
:104A0000014090ED000A9FED451A30EE010A80ED5D
:104A1000000AE4E74FF62C00C2F2014090ED000AD4
:104A2000B5EE400AF1EE10FA0BDAFFE74FF62C0074
:104A3000C2F2014090ED000AB1EE400A80ED000A9A
:104A4000FFE74FF62C00C2F2014090ED000AB3EEF2
:104A5000021AB4EE410AF1EE10FA09DCFFE742F661
:104A60008840C2F2004090F8360FC00740B1FFE71F
:104A700042F68841C2F20041D1F8C000C861FFE7A8
:104A80004FF2A040C2F20140016A42F68840C2F2F1
:104A90000040C0F8F01190ED7C0A90ED7F1AB4EE62
:104AA000410AF1EE10FA09DCFFE742F68840C2F253
:104AB000004090ED7F0A8DED010A24E042F6884027
:104AC000C2F2004090ED7C0A90ED7E1AB4EE410AED
:104AD000F1EE10FA09DBFFE742F68840C2F200402F
:104AE00090ED7E0A8DED000A08E042F68840C2F2A1
:104AF000004090ED7C0A8DED000AFFE79DED000A75
:104B00008DED010AFFE79DED010A42F68840C2F2F1
:104B1000004080ED7C0A04B0704700BF0000B44341
:104B200000003443000034C30000B4C300000000A0
:104B300080B58AB0089004F06BFE0490089828B9FC
:104B4000FFE701208DF8270000F0AABC089890F834
:104B5000350002280ED0FFE7089980204865FFE75E
:104B60000899002081F83400FFE701208DF8270024
:104B700000F096BC0898016801201022C4F20202DD
:104B80009142039000F0A380FFE70898016801209C
:104B90002822C4F202029142039000F09880FFE7BD
:104BA0000898016801204022C4F202029142039059
:104BB00000F08D80FFE70898016801205822C4F2B8
:104BC00002029142039000F08280FFE7089801689A
:104BD00001207022C4F202029142039077D0FFE7D5
:104BE0000898016801208822C4F2020291420390D1
:104BF0006DD0FFE7089801680120A022C4F20202EC
:104C00009142039063D0FFE7089801680120B82221
:104C1000C4F202029142039059D0FFE7089801685C
:104C2000012040F21042C4F20202914203904ED0A1
:104C3000FFE708980168012040F22842C4F202020E
:104C40009142039043D0FFE708980168012040F2A9
:104C50004042C4F202029142039038D0FFE7089824
:104C60000168012040F25842C4F2020291420390CE
:104C70002DD0FFE708980168012040F27042C4F28D
:104C800002029142039022D0FFE7089801680120B8
:104C900040F28842C4F202029142039017D0FFE72B
:104CA00008980168012040F2A042C4F20202914239
:104CB00003900CD0FFE7089800684FF64831CBF618
:104CC000FD710844B0FA80F040090390FFE70398B3
:104CD000C00780B1FFE708980168086820F01E004F
:104CE000086008980168486920F0800048610898C9
:104CF0000068059009E008980168086820F00E0037
:104D00000860089800680590FFE70898016801208E
:104D10001022C4F202029142029000F00381FFE7E8
:104D20000898016801202822C4F2020291420290F0
:104D300000F0F880FFE70898016801204022C4F2E3
:104D400002029142029000F0ED80FFE708980168AE
:104D500001205822C4F202029142029000F0E28047
:104D6000FFE70898016801207022C4F20202914214
:104D7000029000F0D780FFE70898016801208822A0
:104D8000C4F202029142029000F0CC80FFE7089842
:104D900001680120A022C4F202029142029000F0B8
:104DA000C180FFE7089801680120B822C4F202021E
:104DB0009142029000F0B680FFE708980168012058
:104DC00040F21042C4F202029142029000F0AA8026
:104DD000FFE708980168012040F22842C4F202026D
:104DE0009142029000F09E80FFE708980168012040
:104DF00040F24042C4F202029142029000F09280DE
:104E0000FFE708980168012040F25842C4F202020C
:104E10009142029000F08680FFE708980168012027
:104E200040F27042C4F20202914202907AD0FFE74F
:104E300008980168012040F28842C4F202029142BF
:104E400002906FD0FFE708980168012040F2A0426D
:104E5000C4F202029142029064D0FFE70898016810
:104E6000012040F2B842C4F202029142029059D0AD
:104E7000FFE708980168012045F20842C5F60202E2
:104E8000914202904ED0FFE708980168012045F258
:104E90001C42C5F602029142029043D0FFE70898F7
:104EA0000168012045F23042C5F6020291420290AB
:104EB00038D0FFE708980168012045F24442C5F662
:104EC0000202914202902DD0FFE70898016801206C
:104ED00045F25842C5F602029142029022D0FFE705
:104EE00008980168012045F26C42C5F60202914221
:104EF000029017D0FFE708980168012045F2804230
:104F0000C5F60202914202900CD0FFE708980068B3
:104F10004AF66C31CAF2FD710844B0FA80F04009DB
:104F20000290FFE70298C00738B1FFE70898016ECA
:104F3000086820F480700860FFE708980068102176
:104F4000C4F20201884200F08180FFE708980068FF
:104F50002821C4F20201884278D0FFE7089800684F
:104F60004021C4F20201884270D0FFE7089800682F
:104F70005821C4F20201884268D0FFE7089800680F
:104F80007021C4F20201884260D0FFE708980068EF
:104F90008821C4F20201884258D0FFE708980068CF
:104FA000A021C4F20201884250D0FFE708980068AF
:104FB000B821C4F20201884248D0FFE7089800688F
:104FC00040F21041C4F2020188423FD0FFE7089846
:104FD000006840F22841C4F20201884236D0FFE75F
:104FE0000898006840F24041C4F2020188422DD086
:104FF000FFE70898006840F25841C4F20201884275
:1050000024D0FFE70898006840F27041C4F2020122
:1050100088421BD0FFE70898006840F28841C4F23C
:105020000201884212D0FFE70898006840F2A041D0
:10503000C4F20201884209D0FFE70898006840F2F4
:10504000B841C4F20201884207D1FFE7089801681D
:10505000086820F00100086006E008980168086808
:1050600020F001000860FFE7FFE705980068C0072F
:10507000C8B1FFE704F0CCFB0499401A062811D30D
:10508000FFE70899202048650899032081F835003A
:10509000FFE70899002081F83400FFE701208DF830
:1050A0002700FDE1E1E70898016801201022C4F221
:1050B00002029142019000F0A380FFE70898016886
:1050C00001202822C4F202029142019000F098804F
:1050D000FFE70898016801204022C4F202029142D1
:1050E000019000F08D80FFE70898016801205822A8
:1050F000C4F202029142019000F08280FFE708981A
:10510000016801207022C4F202029142019077D01E
:10511000FFE70898016801208822C4F20202914248
:1051200001906DD0FFE7089801680120A022C4F229
:1051300002029142019063D0FFE7089801680120C4
:10514000B822C4F202029142019059D0FFE70898B8
:105150000168012040F21042C4F202029142019023
:105160004ED0FFE708980168012040F22842C4F2BF
:1051700002029142019043D0FFE7089801680120A4
:1051800040F24042C4F202029142019038D0FFE75F
:1051900008980168012040F25842C4F2020291428C
:1051A00001902DD0FFE708980168012040F270427D
:1051B000C4F202029142019022D0FFE708980168F0
:1051C000012040F28842C4F202029142019017D0BD
:1051D000FFE708980168012040F2A042C4F20202F1
:1051E000914201900CD0FFE7089800684FF64831D3
:1051F000CBF6FD710844B0FA80F040090190FFE75A
:105200000198C00760B1FFE70898806D0790089883
:10521000C06D00F01F013F208840079988600BE0B7
:105220000898806D06900898C06D00F01F0101205D
:10523000884006994860FFE708980168012010221D
:10524000C4F202029142009000F00381FFE7089847
:10525000016801202822C4F202029142009000F06D
:10526000F880FFE70898016801204022C4F202029A
:105270009142009000F0ED80FFE70898016801205E
:105280005822C4F202029142009000F0E280FFE74F
:105290000898016801207022C4F202029142009035
:1052A00000F0D780FFE70898016801208822C4F247
:1052B00002029142009000F0CC80FFE7089801685C
:1052C0000120A022C4F202029142009000F0C180AD
:1052D000FFE7089801680120B822C4F20202914257
:1052E000009000F0B680FFE708980168012040F2C6
:1052F0001042C4F202029142009000F0AA80FFE73F
:1053000008980168012040F22842C4F2020291424A
:10531000009000F09E80FFE708980168012040F2AD
:105320004042C4F202029142009000F09280FFE7F6
:1053300008980168012040F25842C4F202029142EA
:10534000009000F08680FFE708980168012040F295
:105350007042C4F20202914200907AD0FFE70898AE
:105360000168012040F28842C4F20202914200909A
:105370006FD0FFE708980168012040F2A042C4F214
:1053800002029142009064D0FFE708980168012072
:1053900040F2B842C4F202029142009059D0FFE7B5
:1053A00008980168012045F20842C5F602029142C0
:1053B00000904ED0FFE708980168012045F21C429A
:1053C000C5F602029142009043D0FFE708980168B9
:1053D000012045F23042C5F602029142009038D0D9
:1053E000FFE708980168012045F24442C5F6020231
:1053F000914200902DD0FFE708980168012045F206
:105400005842C5F602029142009022D0FFE7089868
:105410000168012045F26C42C5F6020291420090FB
:1054200017D0FFE708980168012045F28042C5F6D1
:105430000202914200900CD0FFE7089800684AF6FB
:105440006C31CAF2FD710844B0FA80F04009009056
:10545000FFE70098C007A0B1FFE70898416E806E93
:1054600048600898C06E58B1FFE70898C16E086898
:1054700020F4807008600898016F406F4860FFE773
:10548000FFE70899012081F83500FFE7089900201F
:1054900081F83400FFE7FFE700208DF82700FFE7E1
:1054A0009DF827000AB080BD80B586B004900498AE
:1054B00020B9FFE701208DF8170046E3049890F823
:1054C0003500022807D0FFE70499802048650120B5
:1054D0008DF8170039E30498016801201022C4F206
:1054E00002029142029000F0A380FFE70498016855
:1054F00001202822C4F202029142029000F098801A
:10550000FFE70498016801204022C4F202029142A0
:10551000029000F08D80FFE7049801680120582276
:10552000C4F202029142029000F08280FFE70498E8
:10553000016801207022C4F202029142029077D0E9
:10554000FFE70498016801208822C4F20202914218
:1055500002906DD0FFE7049801680120A022C4F2F8
:1055600002029142029063D0FFE704980168012093
:10557000B822C4F202029142029059D0FFE7049887
:105580000168012040F21042C4F2020291420290EE
:105590004ED0FFE704980168012040F22842C4F28F
:1055A00002029142029043D0FFE704980168012073
:1055B00040F24042C4F202029142029038D0FFE72A
:1055C00004980168012040F25842C4F2020291425C
:1055D00002902DD0FFE704980168012040F270424C
:1055E000C4F202029142029022D0FFE704980168BF
:1055F000012040F28842C4F202029142029017D088
:10560000FFE704980168012040F2A042C4F20202C0
:10561000914202900CD0FFE7049800684FF64831A1
:10562000CBF6FD710844B0FA80F040090290FFE724
:105630000298C007002800F09D80FFE7049904202D
:1056400081F83500049800681021C4F202018842F4
:1056500000F08180FFE7049800682821C4F202016D
:10566000884278D0FFE7049800684021C4F2020124
:10567000884270D0FFE7049800685821C4F2020104
:10568000884268D0FFE7049800687021C4F20201E4
:10569000884260D0FFE7049800688821C4F20201C4
:1056A000884258D0FFE704980068A021C4F20201A4
:1056B000884250D0FFE704980068B821C4F2020184
:1056C000884248D0FFE70498006840F21041C4F2D5
:1056D000020188423FD0FFE70498006840F2284169
:1056E000C4F20201884236D0FFE70498006840F215
:1056F0004041C4F2020188422DD0FFE704980068BF
:1057000040F25841C4F20201884224D0FFE70498D5
:10571000006840F27041C4F2020188421BD0FFE7EA
:105720000498006840F28841C4F20201884212D015
:10573000FFE70498006840F2A041C4F202018842E9
:1057400009D0FFE70498006840F2B841C4F20201B2
:10575000884207D1FFE704980168086820F001003B
:10576000086006E004980168086820F001000860FD
:10577000FFE7E5E104980168086820F00E00086082
:10578000049800681021C4F20201884200F0818070
:10579000FFE7049800682821C4F20201884278D00B
:1057A000FFE7049800684021C4F20201884270D0EB
:1057B000FFE7049800685821C4F20201884268D0CB
:1057C000FFE7049800687021C4F20201884260D0AB
:1057D000FFE7049800688821C4F20201884258D08B
:1057E000FFE704980068A021C4F20201884250D06B
:1057F000FFE704980068B821C4F20201884248D04B
:10580000FFE70498006840F21041C4F202018842A8
:105810003FD0FFE70498006840F22841C4F202013B
:10582000884236D0FFE70498006840F24041C4F255
:10583000020188422DD0FFE70498006840F25841E9
:10584000C4F20201884224D0FFE70498006840F2C5
:105850007041C4F2020188421BD0FFE7049800683F
:1058600040F28841C4F20201884212D0FFE7049856
:10587000006840F2A041C4F20201884209D0FFE76B
:105880000498006840F2B841C4F20201884207D18E
:10589000FFE704980168086820F00100086006E04E
:1058A00004980168086820F001000860FFE7049888
:1058B000016801201022C4F202029142019000F01E
:1058C0000381FFE70498016801202822C4F2020244
:1058D0009142019000F0F880FFE7049801680120F0
:1058E0004022C4F202029142019000F0ED80FFE7F5
:1058F0000498016801205822C4F2020291420190EA
:1059000000F0E280FFE70498016801207022C4F2F1
:1059100002029142019000F0D780FFE704980168ED
:1059200001208822C4F202029142019000F0CC8052
:10593000FFE7049801680120A022C4F2020291420C
:10594000019000F0C180FFE7049801680120B822AF
:10595000C4F202029142019000F0B680FFE7049881
:105960000168012040F21042C4F20202914201900B
:1059700000F0AA80FFE704980168012040F2284265
:10598000C4F202029142019000F09E80FFE7049869
:105990000168012040F24042C4F2020291420190AB
:1059A00000F09280FFE704980168012040F258421D
:1059B000C4F202029142019000F08680FFE7049851
:1059C0000168012040F27042C4F20202914201904B
:1059D0007AD0FFE704980168012040F28842C4F2BF
:1059E0000202914201906FD0FFE704980168012004
:1059F00040F2A042C4F202029142019064D0FFE75B
:105A000004980168012040F2B842C4F202029142B7
:105A1000019059D0FFE704980168012045F208423F
:105A2000C5F60202914201904ED0FFE7049801684A
:105A3000012045F21C42C5F602029142019043D07A
:105A4000FFE704980168012045F23042C5F60202E2
:105A50009142019038D0FFE704980168012045F297
:105A60004442C5F60202914201902DD0FFE704980E
:105A70000168012045F25842C5F6020291420190A8
:105A800022D0FFE704980168012045F26C42C5F678
:105A900002029142019017D0FFE7049801680120AB
:105AA00045F28042C5F60202914201900CD0FFE718
:105AB000049800684AF66C31CAF2FD710844B0FAE5
:105AC00080F040090190FFE70198C00728B3FFE785
:105AD0000498016E086820F4807008600498806D56
